:1000000012C0189518951895189518951895189563
:100010001895189518951895189518951895189578
:100020001895189518958FED8DBFC8EBE0EA4E2E08
:10003000DD275D2EA89584B7082E877F84BF88E1D1
:10004000992781BD91BDEEE7F0E0A0E6B0E08827FA
:100050008D933197E9F7662480E081BB8FEF87BBF2
:1000600074B7777F74BF8EE181BD86E081BD85E185
:1000700090E0A0E68D939C9380E090E0A5E68D93C0
:100080009C9380E090E0A7E68D939C9380E090E0C5
:10009000A9E68D939C9380E090E0ABE68D939C93D2
:1000A00080E090E0ADE68D939C9380E090E0AFE639
:1000B0008D939C9380E090E0A3E68D939C9370E0F9
:1000C00078BB81E08093620000916200063010F0FE
:1000D00009F021C088B391E0892788BB88B392E0FA
:1000E000892788BB88B394E0892788BB88B398E0C8
:1000F000892788BB88B390E1892788BB88B390E2C1
:10010000892788BB8EEE92E076D2A2E68C918F5F33
:100110008C9308F4D9CF88EE93E06DD281B58860D6
:1001200081BD70E078BBA5E60D911C91043150E0D3
:10013000150709F004C0869B01C0C09AC39AA5E6C2
:100140000D911C910A3050E0150709F002C0C098CB
:10015000C398A7E60D911C910A3050E0150709F0ED
:1001600004C0869B01C0C19AC49AA7E60D911C9158
:10017000053050E0150709F002C0C198C498A9E6FF
:100180000D911C910A3050E0150709F004C0869BC0
:1001900001C0C29AC59AA9E60D911C91053050E0A4
:1001A000150709F002C0C298C598ADE60D911C91E3
:1001B0000F3050E0150709F004C0869B01C0C19ABA
:1001C000C49AADE60D911C910A3050E0150709F074
:1001D00006C0C198C498869B01C0C09AC39AADE678
:1001E0000D911C91053050E0150709F002C0C09830
:1001F000C398ABE60D911C910F3050E0150709F044
:1002000002C0C19AC49AABE60D911C910A3050E02D
:10021000150709F004C0C198C498C29AC59AABE604
:100220000D911C91053050E0150709F002C0C298ED
:10023000C598AFE60D911C91043150E0150709F007
:1002400002C0C29AC59AAFE60D911C910F3050E0E2
:10025000150709F004C0C298C598C19AC49AAFE6C0
:100260000D911C910A3050E0150709F004C0C198A7
:10027000C498C09AC39AAFE60D911C91053050E026
:10028000150709F002C0C098C398A0E30C9103FBC6
:1002900081E00EF480E08F93A0E30C9105FB81E0F8
:1002A0000EF480E09F91892B882309F406C081E039
:1002B00090E0A3E68D939C9305C080E090E0A3E6D8
:1002C0008D939C93A5E60D911C91003050E015078D
:1002D00014F009F001C008C0A5E60D911C91015071
:1002E0001040A5E60D931C93A7E60D911C910030DC
:1002F00050E0150714F009F001C008C0A7E60D9101
:100300001C9101501040A7E60D931C93A9E60D9196
:100310001C91003050E0150714F009F001C008C02E
:10032000A9E60D911C9101501040A9E60D931C9374
:10033000ABE60D911C91003050E0150714F009F068
:1003400001C008C0ABE60D911C9101501040ABE616
:100350000D931C93ADE60D911C91003050E01507F4
:1003600014F009F001C008C0ADE60D911C910150D8
:100370001040ADE60D931C93AFE60D911C9100303B
:1003800050E0150714F009F001C008C0AFE60D9168
:100390001C9101501040AFE60D931C93A0E30C910B
:1003A00000FB81E00EF480E08F93A5E60D911C9197
:1003B000003050E0150781E009F080E09F9189232B
:1003C0008F93A3E60D911C91003050E0150781E05A
:1003D00009F080E09F9189238F93A0E30C9104FBA7
:1003E00081E00EF080E09F918923882309F405C005
:1003F00084E190E0A5E68D939C93A0E30C9101FB32
:1004000081E00EF480E08F93A7E60D911C910030FF
:1004100050E0150781E009F080E09F9189238F93D8
:10042000A3E60D911C91003050E0150781E009F022
:1004300080E09F9189238F93A0E30C9104FB81E0DE
:100440000EF080E09F918923882309F405C08AE09B
:1004500090E0A7E68D939C93A0E30C9102FB81E0D2
:100460000EF480E08F93A9E60D911C91003050E0CE
:10047000150781E009F080E09F9189238F93A3E61F
:100480000D911C91003050E0150781E009F080E0EB
:100490009F918923882309F405C08AE090E0A9E6AA
:1004A0008D939C93A0E30C9103FB81E00EF480E01C
:1004B0008F93ABE60D911C91003050E0150781E061
:1004C00009F080E09F9189238F93A0E30C9105FBB5
:1004D00081E00EF080E09F918923882309F405C014
:1004E0008FE090E0ABE68D939C93A0E30C9104FB2E
:1004F00081E00EF480E08F93ADE60D911C91003009
:1005000050E0150781E009F080E09F9189238F93E7
:10051000A3E60D911C91003050E0150781E009F031
:1005200080E09F918923882309F405C08FE090E043
:10053000ADE68D939C93A0E30C9105FB81E00EF456
:1005400080E08F93AFE60D911C91003050E01507CD
:1005500081E009F080E09F918923882309F405C098
:1005600084E190E0AFE68D939C93A0E60D911C9101
:10057000003050E0150714F009F001C008C0A0E6F3
:100580000D911C9101501040A0E60D931C93A0E624
:100590000D911C91063050E0150709F001C0C69A74
:1005A000A0E60D911C91013050E0150709F001C043
:1005B000C698A0E60D911C91003050E0150709F097
:1005C00005C085E190E0A0E68D939C93A895C79A1D
:1005D00089E190E010D0C7988BE490E00CD0A3CDD7
:1005E000F894FFCF3197F1F70895689462F8089571
:1005F000E89462F80895EF93FF93EE27E82BE92B38
:1006000031F0E8EEF3E03197F1F70197D1F7FF9180
:04061000EF910895C9
:00000001FF
