:1000000012C0189518951895189518951895189563
:100010001895189518951895189518951895189578
:100020001895189518958FED8DBFC8EBE0EA4E2E08
:10003000DD275D2EA89584B7082E877F84BF88E1D1
:10004000992781BD91BDEEE7F0E0A0E6B0E08827FA
:100050008D933197E9F7662480E081BB8FEF87BBF2
:1000600074B7777F74BF8EE181BD86E081BD70E09B
:1000700078BB82E380936D0084E690E053D381B532
:10008000886081BD009161000C3009F007C00091CB
:100090006800003009F001C0C09AC39A0091610065
:1000A000083009F009C0C098C3980091680000307A
:1000B00009F001C0C19AC49A00916100043009F0AE
:1000C00002C0C198C498009162000C3009F007C0CA
:1000D00000916800003009F001C0C09AC39A0091F5
:1000E0006200083009F009C0C098C3980091680008
:1000F000003009F001C0C29AC59A00916200043034
:1001000009F002C0C298C59800916300083009F058
:1001100007C000916800003009F001C0C19AC49A7C
:1001200000916300043009F002C0C198C4980091A6
:100130006400083009F007C000916800003009F041
:1001400001C0C29AC59A00916400043009F002C04F
:10015000C298C598009165000C3009F007C0009165
:100160006800003009F001C0C19AC49A009165008E
:10017000083009F009C0C198C498009168000030A7
:1001800009F001C0C29AC59A00916500043009F0D7
:1001900002C0C298C59800916600003109F002C003
:1001A000C29AC59A009166000C3009F004C0C2984A
:1001B000C598C19AC49A00916600083009F004C03D
:1001C000C198C498C09AC39A00916600043009F09F
:1001D00002C0C098C39800916700023010F009F087
:1001E00001C002C0C09AC39A00916700013009F0B3
:1001F00002C0C098C39800916E00003010F009F062
:1002000001C004C0AEE68C9181508C9300916900CE
:10021000003010F009F001C004C0A9E68C918150B3
:100220008C9300916A00003010F009F001C004C006
:10023000AAE68C9181508C9300916B00003010F0F5
:1002400009F001C004C0ABE68C9181508C93009101
:100250006C00003010F009F001C004C0ACE68C91D5
:1002600081508C9300916D00003010F009F001C0B6
:1002700004C0ADE68C9181508C93009161000030F8
:1002800010F009F001C004C0A1E68C9181508C935C
:1002900000916200003010F009F001C004C0A2E635
:1002A0008C9181508C9300916300003010F009F024
:1002B00001C004C0A3E68C9181508C93009164002E
:1002C000003010F009F001C004C0A4E68C91815008
:1002D0008C9300916500003010F009F001C004C05B
:1002E000A5E68C9181508C9300916600003010F04F
:1002F00009F001C004C0A6E68C9181508C93009156
:100300006700003010F009F001C004C0A7E68C912E
:1003100081508C93809903C08EE180936E00819907
:1003200003C08EE180936900829903C08EE18093BF
:100330006A00839903C08EE180936B00849903C0A7
:100340008EE180936C00859903C08EE180936D00EF
:1003500000916E00003080E010F009F081E08F9392
:1003600000916700003081E009F080E09F918923CF
:100370008F9300916100003081E009F080E09F914F
:1003800089238F9300916D00003081E009F080E0B7
:100390009F9189238F9300916C00003081E009F0D8
:1003A00080E09F9189238F9300916B00003081E062
:1003B00009F080E09F9189238F9300916A000030BB
:1003C00081E009F080E09F9189238F93009169007B
:1003D000003081E009F080E09F918923882309F4AF
:1003E00003C08CE08093610000916900003080E0E0
:1003F00010F009F081E08F9300916700003081E0F8
:1004000009F080E09F9189238F9300916200003072
:1004100081E009F080E09F9189238F9300916D0026
:10042000003081E009F080E09F9189238F93009153
:100430006C00003081E009F080E09F9189238F9368
:1004400000916B00003081E009F080E09F918923EA
:100450008F9300916A00003081E009F080E09F9165
:100460008923882309F403C08CE080936200009103
:100470006A00003080E010F009F081E08F93009175
:100480006300003081E009F080E09F9189238F9321
:1004900000916D00003081E009F080E09F91892398
:1004A0008F9300916C00003081E009F080E09F9113
:1004B00089238F9300916B00003081E009F080E088
:1004C0009F918923882309F403C088E08093630007
:1004D00000916B00003080E010F009F081E08F9314
:1004E00000916400003081E009F080E09F91892351
:1004F0008F9300916D00003081E009F080E09F91C2
:1005000089238F9300916C00003081E009F080E036
:100510009F918923882309F403C088E080936400B5
:1005200000916C00003080E010F009F081E08F93C2
:1005300000916500003081E009F080E09F918923FF
:100540008F9300916D00003081E009F080E09F9171
:100550008923882309F403C08CE08093650000910F
:100560006D00003080E010F009F081E08F93009181
:100570006600003081E009F080E09F9189238823A4
:1005800009F403C080E180936600A0E30C9106FBB0
:1005900081E00EF480E08F9300916800003081E0EC
:1005A00009F080E09F918923882309F43CC00091E1
:1005B0006E00003081E009F080E08F9300916900C7
:1005C000003081E009F080E09F9189238F930091B2
:1005D0006A00003081E009F080E09F9189238F93C9
:1005E00000916B00003081E009F080E09F91892349
:1005F0008F9300916C00003081E009F080E09F91C2
:1006000089238F9300916D00003081E009F080E034
:100610009F918923882309F403C08BE080936700AE
:1006200081E080936800A0E30C9106FB81E00EF06E
:1006300080E08F9300916800013081E009F080E054
:100640009F918923882309F43CC000916E000030FB
:1006500081E009F080E08F9300916900003081E033
:1006600009F080E09F9189238F9300916A00003008
:1006700081E009F080E09F9189238F9300916B00C6
:10068000003081E009F080E09F9189238F930091F1
:100690006C00003081E009F080E09F9189238F9306
:1006A00000916D00003081E009F080E09F91892386
:1006B000882309F403C085E08093670080E080937D
:1006C000680000916000003010F009F001C004C023
:1006D000A0E68C9181508C9300916000063009F067
:1006E00002C0C69AC79A00916000013009F002C0AA
:1006F000C698C79800916000003009F003C085E1FA
:1007000080936000A89584E690E00CD0BBCCF89470
:10071000FFCF3197F1F70895689462F80895E8944F
:1007200062F80895EF93FF93EE27E82BE92B31F061
:10073000E0EDF7E03197F1F70197D1F7FF91EF91F5
:0207400008951A
:00000001FF
