:1000000012C0189518951895189518951895189563
:100010001895189518951895189518951895189578
:100020001895189518958FED8DBFC8EBE0EA4E2E08
:10003000DD275D2EA89584B7082E877F84BF88E1D1
:10004000992781BD91BDEEE7F0E0A0E6B0E08827FA
:100050008D933197E9F7662480E081BB8FEF87BBF2
:1000600074B7777F74BF8EE181BD86E081BD70E09B
:1000700078BBC19A81E080936800009168000431E8
:1000800010F009F00DC088B391E0892788BB84EF98
:1000900091E05ED3A8E68C918F5F8C9308F4EDCF4E
:1000A000C198C09A84EC99E053D381B5886081BD32
:1000B00070E078BB00916100083009F001C0C09A7F
:1000C00000916100043009F001C0C0980091620005
:1000D000083009F004C0C19A8AE080937100009151
:1000E0006200043009F001C0C1980091630008303B
:1000F00009F004C0C19A8AE0809371000091630006
:10010000043009F001C0C19800916400083009F082
:1001100004C0C19A8AE080937100009164000430A9
:1001200009F001C0C19800916500083009F004C0D1
:10013000C29A8AE08093700000916500043009F053
:1001400001C0C29800916600083009F004C0C29A4C
:100150008AE08093700000916600043009F001C0CD
:10016000C29800916200003081E009F080E08F9336
:10017000A2E78C9187FB81E00EF080E09F918923BC
:10018000882309F406C0C098709172007F7770933D
:10019000720000916400003081E009F080E08F93EC
:1001A000A2E78C9186FB81E00EF080E09F9189238D
:1001B000882309F406C0C298709172007F7B709307
:1001C000720000916500003081E009F080E08F93BB
:1001D000A2E78C9185FB81E00EF080E09F9189235E
:1001E000882309F406C0C198709172007F7D7093D6
:1001F000720000916E00003010F009F001C004C0E0
:10020000AEE68C9181508C9300916900003010F023
:1002100009F001C004C0A9E68C9181508C93009133
:100220006A00003010F009F001C004C0AAE68C9109
:1002300081508C9300916B00003010F009F001C0E8
:1002400004C0ABE68C9181508C9300916C0000301F
:1002500010F009F001C004C0ACE68C9181508C9381
:1002600000916D00003010F009F001C004C0ADE64F
:100270008C9181508C9300916100003010F009F056
:1002800001C004C0A1E68C9181508C930091620062
:10029000003010F009F001C00AC0A2E68C91815034
:1002A0008C9370917200706870937200C09A009184
:1002B0006300003010F009F001C004C0A3E68C9187
:1002C00081508C9300916400003010F009F001C05F
:1002D0000AC0A4E68C9181508C9370917200706476
:1002E00070937200C29A00916500003010F009F01E
:1002F00001C00AC0A5E68C9181508C937091720068
:10030000706270937200C19A00916600003010F024
:1003100009F001C004C0A6E68C9181508C93009135
:100320006700003010F009F001C004C0A7E68C910E
:1003300081508C93809918C000916E00003081E04C
:1003400009F080E08F93A0E30C9106FB81E00EF0B2
:1003500080E09F918923882309F403C081E0809382
:100360006F008EE180936E00819918C00091690042
:10037000003081E009F080E08F93A0E30C9106FB50
:1003800081E00EF080E09F918923882309F403C067
:100390008AE080936F008EE180936900829918C093
:1003A00000916A00003081E009F080E08F93A0E3C3
:1003B0000C9106FB81E00EF080E09F918923882359
:1003C00009F403C08AE080936F008EE180936A0095
:1003D00083990BC000916B00003009F003C08AE0E4
:1003E00080936F008EE180936B0084990BC0009125
:1003F0006C00003009F003C08AE080936F008EE14A
:1004000080936C0085990BC000916D00003009F05D
:1004100003C08AE080936F008EE180936D000091AD
:100420006E00003080E010F009F081E08F930091C1
:100430006700003081E009F080E09F9189238F936D
:1004400000916100003081E009F080E09F918923F4
:100450008F9300916D00003081E009F080E09F9162
:1004600089238F9300916C00003081E009F080E0D7
:100470009F9189238F9300916B00003081E009F0F8
:1004800080E09F9189238F9300916A00003081E082
:1004900009F080E09F9189238F93009169000030DB
:1004A00081E009F080E09F918923882309F403C04B
:1004B00088E08093610000916900003080E010F0D6
:1004C00009F081E08F9300916700003081E009F02E
:1004D00080E09F9189238F9300916200003081E03A
:1004E00009F080E09F9189238F9300916D00003087
:1004F00081E009F080E09F9189238F9300916C0047
:10050000003081E009F080E09F9189238F93009172
:100510006B00003081E009F080E09F9189238F9388
:1005200000916A00003081E009F080E09F9189230A
:10053000882309F403C088E08093620000916A0078
:10054000003080E010F009F081E08F9300916300AB
:10055000003081E009F080E09F9189238F93009122
:100560006D00003081E009F080E09F9189238F9336
:1005700000916C00003081E009F080E09F918923B8
:100580008F9300916B00003081E009F080E09F9133
:100590008923882309F403C088E0809363000091D5
:1005A0006B00003080E010F009F081E08F93009143
:1005B0006400003081E009F080E09F9189238F93EF
:1005C00000916D00003081E009F080E09F91892367
:1005D0008F9300916C00003081E009F080E09F91E2
:1005E0008923882309F403C088E080936400009184
:1005F0006C00003080E010F009F081E08F930091F2
:100600006500003081E009F080E09F9189238F939D
:1006100000916D00003081E009F080E09F91892316
:10062000882309F403C088E08093650000916D0081
:10063000003080E010F009F081E08F9300916600B7
:10064000003081E009F080E09F918923882309F43C
:1006500003C088E08093660000916F00003009F0CD
:1006600001C0C59800916F000A3081E009F080E078
:100670008F93A0E30C9106FB81E00EF480E09F9144
:100680008923882309F403C081E080936F000091DF
:100690006F00003010F009F001C005C0AFE68C918A
:1006A00081508C93C59A00917100003009F001C00F
:1006B000C39800917100003010F009F001C005C02E
:1006C000A1E78C9181508C93C39A00917000003007
:1006D00009F001C0C49800917000003010F009F0DA
:1006E00001C005C0A0E78C9181508C93C49A009101
:1006F0006000003010F009F001C004C0A0E68C9149
:1007000081508C9300916000063009F002C0C69AB7
:10071000C79A00916000013009F002C0C698C798DE
:1007200000916000003009F003C085E18093600013
:10073000A89584E690E00CD0BDCCF894FFCF31971B
:10074000F1F70895689462F80895E89462F80895BE
:10075000EF93FF93EE27E82BE92B31F0E0EDF7E084
:0E0760003197F1F70197D1F7FF91EF910895CE
:00000001FF
